S017000041746D65676133325F4472697665722E737265638E
S11300000C942A000C9447000C9447000C9447006D
S11300100C9447000C9447000C9447000C94470040
S11300200C9447000C9447000C94EC000C94C5000D
S11300300C9447000C9447000C9447000C94470020
S11300400C9447000C9447000C9447000C94470010
S11300500C94470011241FBECFE5D8E0DEBFCDBF0E
S113006010E0A0E6B0E0EAE2F2E002C005900D92F2
S1130070A036B107D9F720E0A0E6B0E001C01D9298
S1130080AB36B207E1F70E946E000C9413010C9496
S113009000008091600090916100A0916200B09195
S11300A063000196A11DB11D8093600090936100CF
S11300B0A0936200B093630081359F40A105B10510
S11300C061F498B381E0892788BB10926000109294
S11300D0610010926200109263000895CF93DF9341
S11300E000D000D01F92CDB7DEB787B3816087BB45
S11300F084E60E94C30088E0898382E08A8381E0E9
S11301008B8389E490E09D838C83CE0101960E94C9
S11301108A00FFCFCF93DF93EC0185E0FE01A6E6D2
S1130120B0E001900D928A95E1F793B78881892B0D
S113013083BF8881883711F0883619F487B38860C3
S113014087BB93B78981892B83BF8981865082308D
S113015018F487B38E7F87BB99B78A81892B89BFAF
S11301608A81882321F08FB780688FBF03C08FB73F
S11301708F778FBF8B819C819093650080936400FF
S1130180DF91CF9108958CBF08951F920F920FB6FF
S11301900F9211242F933F934F935F936F937F9309
S11301A08F939F93AF93BF93EF93FF93E09164007A
S11301B0F09165000995FF91EF91BF91AF919F91E7
S11301C08F917F916F915F914F913F912F910F90FC
S11301D00FBE0F901F9018951F920F920FB60F929B
S11301E011242F933F934F935F936F937F938F9338
S11301F09F93AF93BF93EF93FF93E0916400F091CB
S113020065000995FF91EF91BF91AF919F918F91F7
S11302107F916F915F914F913F912F910F900FBEFE
S10D02200F901F901895F894FFCF7B
S9030000FC
