S017000041746D65676133325F4472697665722E737265638E
S11300000C942A000C9447000C9447000C9447006D
S11300100C9447000C9447000C9447000C94470040
S11300200C9447000C9447000C94CD000C94A6004B
S11300300C9447000C9447000C9447000C94470020
S11300400C9447000C9447000C9447000C94470010
S11300500C94470011241FBECFE5D8E0DEBFCDBF0E
S113006010E0A0E6B0E0ECEEF1E002C005900D92E5
S1130070A036B107D9F720E0A0E6B0E001C01D9298
S1130080A736B207E1F70E9449000C94F4000C94DF
S11300900000CF93DF9300D000D01F92CDB7DEB71E
S11300A087B3886087BB88E7898382E08A831B8261
S11300B01D821C82CE0101960E94620084E60E9489
S11300C09B00FCCFCF93DF93EC0185E0FE01A2E619
S11300D0B0E001900D928A95E1F793B78881892B5E
S11300E083BF8881883711F0883619F487B3886014
S11300F087BB93B78981892B83BF898186508230DE
S113010018F487B38E7F87BB99B78A81892B89BFFF
S11301108A81882321F08FB780688FBF03C08FB78F
S11301208F778FBF8B819C81909361008093600057
S1130130DF91CF91089590916200983611F48CBFAD
S11301400895983711F480958CBF08951F920F92EB
S11301500FB60F9211242F933F934F935F936F9396
S11301607F938F939F93AF93BF93EF93FF93E0910C
S11301706000F09161000995FF91EF91BF91AF91FB
S11301809F918F917F916F915F914F913F912F91AB
S11301900F900FBE0F901F9018951F920F920FB6DD
S11301A00F9211242F933F934F935F936F937F93F9
S11301B08F939F93AF93BF93EF93FF93E09160006E
S11301C0F09161000995FF91EF91BF91AF919F91DB
S11301D08F917F916F915F914F913F912F910F90EC
S10F01E00FBE0F901F901895F894FFCFED
S9030000FC
